:08000000D6040400000000001A
:0400540000020000A6
:100400004200F8003600F8005400F800801F780021
:10041000200020000C000900B01F78002168A9000E
:10042000D032EF00D232EF00D432EF002202AE0021
:100430000C003700D492BF00D432EC008002780068
:1004400004002100048342002202AE00FEFF3700B8
:1004500030118000004B7800D032EC004220AF0019
:10046000D232EC00A4968000431F20000418E10063
:1004700008003400949680006020E100EBFF350016
:1004800004003C008496800033BB2F000418E10078
:10049000E6FF3E00F431A8002168A8000168A90029
:1004A000A00120000C0009004F1078004F007800D8
:1004B0005400F9003600F9004200F900004006003F
:1004C000851F7800C500200003000900B51F7800D3
:1004D000F411A900F451A900BE32EF00C012A90026
:1004E000AE32EF00F471A900611F2100020020006C
:1004F000950009008058EB00F471AF00460037000A
:10050000C232EF0014968000F31E20000418E100B0
:100510003E00340004002100139680000480410056
:100520001042780074C4B20035003A00149680007E
:10053000610242008402780004002100048042002D
:100540001042780004C5B2002D003A0014968000D5
:10055000620242000403780004002100040043000A
:100560001042780024C5B20025003A00149680009D
:1005700063024200840378000400210004804300E9
:1005800010427800D4C4B2001D003A0014968000D6
:1005900064024200040478000400210004004400C6
:1005A0001042780034C4B20015003A00149680005E
:1005B00066024200649588000400210013968000C2
:1005C00004804100104278006D24E10008003200F0
:1005D000C232EC0014968000449FB20002003A0040
:1005E0000060EF0050003700DC0204000000000053
:1005F000F471A800C012A800060304000000000067
:10060000C232EC008202040000000000F471A80075
:100610007C02040000000000AC12F800BE12F900D9
:10062000C012AE001100370004002100F3958000D5
:1006300004804100104278006D24E1000B0032007C
:10064000641F210073958000848241000400210012
:10065000F395800004804100904A7800BE32EC009F
:10066000AE32EC001403040000000000C432EF00BE
:10067000C632EF007495800061005200349680000D
:100680000020E10025003D00641F2100339680001A
:100690000480410010427800C4C2B2001C003A003D
:1006A000C432EC00C632EC00249680006120E100E8
:1006B00015003A00641F2100339680000480410039
:1006C0001042780014C4B20005003A00F451A800AA
:1006D0008E030400000000008203040000000000FC
:1006E000641F21003396800004804100104278008E
:1006F00064C5B20003003A00F451A9008E0304005F
:1007000000000000C632EC008A0304000000000074
:10071000C632EC003A030400000000000040EB0089
:10072000F451AF000000E80025012000030009009B
:10073000CF127800CF02780000000600851F7800F5
:10074000861F7800BE32EF00C032EF00C232EF00E9
:10075000F49580006420E10038003D00641F210012
:10076000039680000480410010427800C4C2B200A9
:100770002F003A00BE32EC00C032EC00F49580004D
:100780006220E1001B003A00641F210003968000F4
:100790000480410010427800C4C2B200130032004D
:1007A000641F2100039680000480410010427800FD
:1007B000E4C2B2000A0032001496800061024200D6
:1007C00084027800C428210004834200641F2100B1
:1007D0000396800004804100104B7800C232EC0088
:1007E000C032EC00C4030400000000001404040044
:1007F00000000000F49580006320E1000A003A0048
:10080000641F21000396800004804100249680002C
:100810000042900024968800C4D2BF008CF2B7003A
:100820001E040400000000001A0404000000000080
:10083000C032EC00A803040000000000C512A900AB
:10084000149680006620E10001003500C512A80062
:10085000C512AE000300370010C0B30000E0B700BF
:10086000010037000060EF004F037800CF027800EE
:1008700000000600851F7800861F7800BE32EF005A
:10088000C032EF00C232EF00F49580006620E10034
:1008900038003D00641F2100039680000480410061
:1008A00010427800C4C2B2002F003A00BE32EC0001
:1008B000C032EC00F49580006420E1001B003A0097
:1008C000641F2100039680000480410010427800DC
:1008D000C4C2B20013003200641F210003968000DE
:1008E0000480410010427800E4C2B2000A003200E5
:1008F000149680006102420084027800642921007D
:1009000004834200641F210003968000048041009C
:10091000104B7800C232EC00C032EC0060040400DE
:1009200000000000B004040000000000F495800006
:100930006520E1000A003A00641F21000396800050
:100940000480410024968000004290002496880094
:10095000C4D2BF0096F2B700BA0404000000000041
:10096000B604040000000000C032EC00440404009F
:1009700000000000C512A900149680006620E10066
:1009800001003500C512A800C512AE0003003700F3
:1009900010C0B30000E0B700010037000060EF00B6
:1009A0004F037800CF027800000006004044240086
:1009B00020428800C1E8A8006004200042E7B70098
:1009C0007005200042E7B70042C7A900D00420000C
:1009D000C4A6B7000010200080A6B7006004200065
:1009E00042E7B7007005200042E7B70042C7A80001
:1009F00014002000243A880064012000343A880062
:100A00000E00FC003010200031742000820720000E
:100A1000A3092000824878008348780043E7B700A4
:100A20004800DE00217420006204200073052000CD
:100A300082487800834878008048780004002800C5
:100A40000411880004402000141188007413200051
:100A500044118800F411A900F431A900AC32EF0070
:100A6000AE32EF00B032EF00B232EF00B432EF003E
:100A7000F451A900F471A9000E2EEF001E2EEF0014
:100A80002E2EEF003E2EEF004E2EEF005E2EEF00DA
:100A90006E2EEF000FF82600F0FF260020A0B70012
:100AA000000000000FF82600F0FF260020A0B7008D
:100AB000000000002168A800C3E8A800F431AE00DF
:100AC00009003700F431A9006002020000000000B4
:100AD0000004E000040032009E0302000000000059
:100AE0003A040200000000005E050400000000005F
:040AF0000040FE00C4
:0200000401F009
:10000800330000FF800000FF260000FF7F0000FF94
:0C001800370000FFD70000FF330000FF9E
:00000001FF
;DSPIC33EP256MU810
;CRC=6BF3  CREATED="03-Eyl-21 21:13"
