:08000000640A04000000000086
:04005400BA030000EB
:100400005420EF00C3202000008041001040BA00BB
:100410000160EF00000006000D0A0000000000006F
:100420005420EF00C3212000008041001040BA009A
:100430000160EF00000006004154000000000000D1
:100440005420EF00C3222000008041001040BA0079
:100450000160EF0000000600415400002B43000043
:10046000574D00004F440000453D0000256400004A
:10047000000000005420EF006324200000804100B1
:100480001040BA000160EF00000006004154000077
:100490002B430000495000004D550000583D00001E
:1004A00025640000000000005420EF000326200017
:1004B000008041001040BA000160EF00000006001B
:1004C000415400002B430000574A000041500000F7
:1004D0003D22000025730000222C00002225000090
:1004E000732200000D0A0000000000005420EF00FD
:1004F00023282000008041001040BA000160EF0076
:1005000000000600415400002B4300005753000038
:10051000415000003D220000000000005420EF0088
:10052000A3292000008041001040BA000160EF00C4
:1005300000000600544100004C480000410000004B
:100540005420EF00C32A2000008041001040BA0070
:100550000160EF0000000600222C000022000000D5
:100560005420EF00C32B2000008041001040BA004F
:100570000160EF000000060031320000333400005B
:100580003536000037380000000000005420EF002E
:10059000232D2000008041001040BA000160EF00D0
:1005A00000000600222C0000362C0000340D000054
:1005B0000A0000005420EF00632E2000008041005C
:1005C0001040BA000160EF00000006004154000036
:1005D0002B4300004950000053540000413D0000EF
:1005E00022310000393200002E3100003638000080
:1005F0002E3000002E3800003022000000000000E5
:100600005420EF00C3302000008041001040BA00A9
:100610000160EF0000000600415400002B43000081
:1006200049500000535400004F3D00002564000075
:10063000000000005420EF006332200000804100E1
:100640001040BA000160EF000000060041540000B5
:100650002B43000049500000535400004F3F00005E
:10066000000000005420EF00E33320000080410030
:100670001040BA000160EF00000006004154000085
:100680002B43000049500000534500005256000023
:10069000455200003D250000642C00002564000048
:1006A000000000005420EF00E335200000804100EE
:1006B0001040BA000160EF00000006004154000045
:1006C0002B43000049500000534500004E440000F9
:1006D0003D250000642C000025640000000000009F
:1006E0005420EF00C3372000008041001040BA00C2
:1006F0000160EF0000000600546100006C6800001B
:10070000610000005420EF00E33820000080410029
:100710001040BA000160EF00000006003132000016
:100720003334000035360000000000005420EF0094
:10073000233A2000008041001040BA000160EF0021
:1007400000000600576900004669000020450000CF
:100750005350000031320000532000004C6900006B
:100760006272000061720000792E00002E2E0000DF
:10077000000000004200F8003600F8005400F800C5
:10078000801F7800200020000C000900B01F7800B6
:100790000400200084488900040020009448890057
:1007A00004002000A44889002168A9002202AE00AC
:1007B00017003700A0488100801F78000000E80083
:1007C000A04889004F007800800278000502780078
:1007D0006220B800800278002400210004834200D7
:1007E0002202AE00FEFF370030118000004B78007F
:1007F00080488100914881000000E800804889001D
:10080000904881004220AF000000E8009048890035
:10081000904881006000E10009003C0004003500C0
:100820008048810084DE2F000020E10004003600B3
:10083000A0488100048020000020E100DBFF3C0094
:100840000010A8002168A8000168A900A0012000EC
:100850000C0009004F1078004F0078005400F90098
:100860003600F9004200F90000400600851F7800BC
:10087000B14581001104E000060032002322AF00E0
:10088000FEFF37000140900024E2B7008100E8003D
:10089000F8FF370005002000050078000002020084
:1008A000000000000040B3004220AF000500370008
:1008B0008502E8002322AF00FEFF370024E2B700E4
:1008C000F5FF3700CF02780000000600020020008C
:1008D00001872200020078001002020000000000E0
:1008E000805878000201E8000004E0004220AE00D9
:1008F000F8FF370004872200B4458900360402005F
:100900000000000010C0B30000E0B70000000600C7
:10091000851F7800861F7800871F78000170EF0020
:1009200001D0BF000000FB006200E10038003D0084
:100930000010AE0034003700040020006445890038
:1009400060458100440620000020E1002E003400B4
:1009500060458100000278006220B80080027800C3
:10096000240021000480420010427800F4C4B20048
:1009700020003A00604581006100400000037800DB
:10098000060278006223B80024002100040043001E
:1009900010427800B4C4B20016003A0004002000EF
:1009A0007445890070458100440620000020E10064
:1009B0000C00340070458100000278006220B8000D
:1009C000800278002400210004834200004BEB00E9
:1009D000704581000000E80070458900D2040400E1
:1009E000000000000010A90010C0B30000E0B70034
:1009F00009003700604581000000E800604589007B
:100A0000A0040400000000009004040000000000A6
:100A10000010A9000060EF00CF0378004F037800BA
:100A2000CF02780000000600811F78001145810088
:100A3000805878008048EB00CF0078001045810096
:100A40000000E8001045890000000600848A2200AA
:100A50001445890001002000010078000160EF00CA
:100A600054020200000000008100E800811F7800AD
:100A7000801F78004F00780014050200000000007D
:100A8000CF007800900020001008E600F2FF370049
:100A9000214581001104E00008003200811F780028
:100AA00001027800144078001405020000000000E4
:100AB000CF0078008100E800F6FF370020C2B300C5
:100AC0001405020000000000C0C2B30014050200BB
:100AD0000000000020C2B300140502000000000066
:100AE000314581001104E00008003200811F7800C8
:100AF0000102780014407800140502000000000094
:100B0000CF0078008100E800F6FF370020C2B30074
:100B10001405020000000000D0C0B300140502005C
:100B200000000000A0C0B300140502000000000097
:100B3000818A22001104E000060032002322AF0067
:100B4000FEFF37000140900024E2B7008100E8007A
:100B5000F8FF370010C0B30000E0B7000000060047
:100B6000851F7800C500200003000900B51F78002C
:100B700000F0A6000D0037000000EA000480A0008D
:100B800004F0A60009003700801F7800D002200082
:100B9000801F78004F00780014050200000000005C
:100BA0004F0078000480A1000860ED008002EB0097
:100BB000800378008404780004F0A1000404E000BD
:100BC00006003A0009F0A7000200370005002000E7
:100BD00010003700050020000E003700E6425200EA
:100BE0000B0039000003200009F0A60000022000DD
:100BF000801F78004F0078001405020000000000FC
:100C00008502E900FAFF3B00550020000100370093
:100C100084027800640020000580A7000402E80038
:100C200005E0A00009F0A70005F0A000087122006F
:100C3000110009008883D80064060200000000004B
:100C400081037800883E2000110009008883D800C5
:100C500064060200000000008103780048062000BE
:100C6000110009008883D80064060200000000001B
:100C700081037800A8002000110009008883D800B3
:100C800064060200000000000980A600060037008C
:100C9000D0022000801F78004F0078001405020069
:100CA000000000000980A1000003200000C04000F7
:100CB00050018800801F78004F0078001405020062
:100CC0000000000024003700060320000000E000C0
:100CD0000E003A0005E0A600170037000402E90004
:100CE0000524E100020032004200AF0000000600CF
:100CF0000000E00005003A0005E0A6000E00370005
:100D000005F0A600060220000B00370005E0A10058
:100D10000980A6000800370000057800D0022000F6
:100D2000801F78004F0078001405020000000000CA
:100D30000980A1000A00780000404300811F78006C
:100D4000801F78004F0078001405020000000000AA
:100D5000CF007800000006002501200003000900F4
:100D6000CF127800CF02780000000600048722002E
:100D70001445890001002000010078000160EF00A7
:100D800020020200000000008100E800811F7800BE
:100D9000801F78004F00780014050200000000005A
:100DA000CF007800900020001008E600F2FF370026
:100DB0006045810004002000B00502000000000032
:100DC00004872200B44589003604020000000000B8
:100DD000000006000487220014458900010020005D
:100DE000010078000160EF003A02020000000000FC
:100DF0008100E800811F7800801F78004F00780094
:100E00001405020000000000CF00780090002000D0
:100E10001008E600F2FF3700604581000400200062
:100E2000B00502000000000004872200B4458900DC
:100E3000360402000000000010C0B30000E0B7005C
:100E400000000600851F78000500200005007800DE
:100E500076020200000000000040B3004220AF0014
:100E6000050037008502E8002322AF00FEFF3700AF
:100E700024E2B700F5FF37000500200005007800E8
:100E80008E020200000000000040B3004220AF00CC
:100E9000050037008502E8002322AF00FEFF37007F
:100EA00024E2B700F5FF37000500200005007800B8
:100EB000A0020200000000000040B3004220AF008A
:100EC000050037008502E8002322AF00FEFF37004F
:100ED00024E2B700F5FF3700050020000500780088
:100EE000B0020200000000000040B3004220AF004A
:100EF000050037008502E8002322AF00FEFF37001F
:100F000024E2B700F5FF3700050020000500780057
:100F1000C6020200000000000040B3004220AF0003
:100F2000050037008502E8002322AF00FEFF3700EE
:100F300024E2B700F5FF370010C0B30000E0B700AF
:100F4000CF02780000000600020020000187220086
:100F500002007800DA0202000000000080587800E9
:100F60000201E8000004E0004220AE00F8FF370074
:100F700004872200B4458900360402000000000006
:100F800010C0B30000E0B700000006000487220094
:100F90001445890001002000010078000160EF0085
:100FA0001A030200000000008100E800811F7800A1
:100FB000801F78004F007800140502000000000038
:100FC000CF007800900020001008E600F2FF370004
:100FD00004872200B44589003604020000000000A6
:100FE00010C0B30000E0B700000006000487220034
:100FF0001445890001002000010078000160EF0025
:1010000000030200000000008100E800811F78005A
:10101000801F78004F0078001405020000000000D7
:10102000CF007800900020001008E600F2FF3700A3
:101030006045810004002000B005020000000000AF
:1010400004872200B4458900360402000000000035
:1010500010C0B30000E0B70000000600340020001C
:1010600064458900B6060200000000008804020002
:10107000000000000004E00002003A000060EF0001
:101080003C0037001400200064458900EA06020095
:101090000000000088040200000000000004E000DE
:1010A00002003A000060EF0032003700048722009F
:1010B0001445890001002000010078000160EF0064
:1010C00032030200000000008100E800811F780068
:1010D000801F78004F007800140502000000000017
:1010E000CF007800C00020001008E600F2FF3700B3
:1010F0001000200004002000B005020000000000E5
:10110000C0C2B3001405020000000000204D200002
:1011100004002000B0050200000000000487220047
:10112000B445890036040200000000008804020073
:10113000000000000004E00002003A000060EF0040
:101140000C003700440B200064458900F6070200BC
:101150000000000088040200000000000004E0001D
:1011600002003A000060EF000200370010C0B30038
:1011700000E0B70000000600660402000000000066
:1011800088040200000000000004E00002003A00B1
:101190000060EF0052003700020020002180220092
:1011A0000200780070030200000000008058780000
:1011B0000201E8000004E0004220AE00F8FF370022
:1011C0000200200041832200020078008203020016
:1011D00000000000805878000201E8000004E000F0
:1011E0004220AE00F8FF3700248022002445890009
:1011F00044832200344589002605020000000000D7
:101200003400200064458900B6060200000000009A
:1012100088040200000000000004E00002003A0020
:101220000060EF002E0037001400200064458900A4
:10123000EA0602000000000088040200000000002E
:101240000004E00002003A000060EF0024003700D4
:1012500022070200000000008804020000000000D5
:101260000004E00002003A000060EF001C003700BC
:10127000A407020000000000880402000000000033
:101280000004E00002003A000060EF0014003700A4
:10129000C6070200000000008804020000000000F1
:1012A0000004E00002003A000060EF000C0037008C
:1012B0001400200024458900244D20003445890075
:1012C0002E080200000000000004E00002003A00C6
:1012D0000060EF000200370010C0B30000E0B7006C
:1012E000000006000000E0004220AF0008003700C8
:1012F0007B3B090000000000FE3F090000000000E9
:10130000FE3F0900000000000000E900F8FF3A007D
:1013100000000600851F7800861F780004872200E1
:101320001445890001002000010078000160EF00F1
:1013300052030200000000008100E800811F7800D5
:10134000801F78004F0078001405020000000000A4
:10135000CF007800A00020001008E600F2FF370060
:101360003045810004002000B005020000000000AC
:10137000C0C2B30014050200000000004045810017
:1013800004002000B00502000000000004872200D5
:10139000B445890036040200000000007E3B0900CD
:1013A00000000000FF3F090000000000FF3F0900AF
:1013B0000000000040458100048020000020E10082
:1013C00028003A000400200054458900504581005F
:1013D0006400E10021003D00040020006445890014
:1013E00060458100042020000020E100130034004B
:1013F000042020005045810000A0B9008002780040
:1014000060458100808242002045810000804200CA
:10141000104378002322AF00FEFF37002402F800BB
:10142000E6FF9F002402F900604581000000E8000B
:1014300060458900F0090400000000002000200041
:101440007209020000000000504581000000E80021
:1014500050458900E6090400000000005A0A040013
:1014600000000000040020007445890070458100E0
:10147000444581000020E1000E00340070458100E9
:101480002445810004004000904278002322AF00F0
:10149000FEFF37002402F800E5FF9F002402F90058
:1014A000704581000000E80070458900360A04009C
:1014B0000000000010C0B30000E0B7004F03780048
:1014C000CF0278000000060040442400204288003B
:1014D000C1E8A8006004200042E7B70070052000C2
:1014E00042E7B70042C7A900D0042000C4A6B70055
:1014F0000010200080A6B7006004200042E7B7007B
:101500007005200042E7B70042C7A8001400200081
:10151000243A880064012000343A88000E00FC0060
:10152000301020003174200082072000A309200021
:10153000824878008348780043E7B7004800DE001F
:101540002174200062042000730520008248780086
:10155000834878008048780004002800041188003F
:1015600004402000141188009401200044118800D8
:101570000010A9000170EF003043810000C0B300EB
:101580003043890004002000444389000400200007
:1015900054438900040020006443890004002000B3
:1015A000744389000E2EEF001E2EEF002E2EEF004A
:1015B0003E2EEF004E2EEF005E2EEF006E2EEF005F
:1015C0000FF82600F0FF260020A0B7000000000062
:1015D0000FF82600F0FF260020A0B7000000000052
:1015E0002168A800C3E8A800BC08020000000000B1
:1015F0000200200021002200020078009603020071
:1016000000000000805878000201E8000004E000BB
:101610004220AE00F8FF3700240022002445890054
:10162000040020003445890024032000444589003B
:101630008A090200000000000010AE00010037001F
:101640000010A900803E2000720902000000000086
:0C1650000C0B0400000000000040FE0035
:0200000401F009
:10000800330000FF800000FF260000FF7F0000FF94
:0C001800370000FFD70000FF330000FF9E
:00000001FF
;DSPIC33EP256MU810
;CRC=304E  CREATED="09-Eki-21 17:19"
