:0800000062080400000000008A
:04005400580300004D
:100400005420EF00C3202000008041001040BA00BB
:100410000160EF0000000600415400002B41000085
:1004200055540000483F00000D0A00000000000085
:100430005420EF0043222000008041001040BA0009
:100440000160EF0000000600415400002B41000055
:100450005554000048250000640D00000A0000000B
:100460005420EF00C3232000008041001040BA0058
:100470000160EF0000000600415400002B4D000019
:100480004F440000453F00000D0A0000000000003E
:100490005420EF0043252000008041001040BA00A6
:1004A0000160EF0000000600415400002B4D0000E9
:1004B0004F44000045250000640D00000A000000C4
:1004C0005420EF00C3262000008041001040BA00F5
:1004D0000160EF0000000600415400002B4E0000B8
:1004E000414D0000453F00000D0A000000000000E3
:1004F0005420EF0043282000008041001040BA0043
:100500000160EF0000000600415400002B4E000087
:10051000414D000045250000730000005420EF000D
:10052000A3292000008041001040BA000160EF00C4
:1005300000000600415400002B4E0000414D000019
:10054000423F00000D0A0000000000005420EF00B0
:10055000232B2000008041001040BA000160EF0012
:1005600000000600415400002B4E0000414D0000E9
:1005700042250000730000005420EF00832C20006F
:10058000008041001040BA000160EF00000006004A
:10059000415400002B500000494E0000453F000030
:1005A0000D0A0000000000005420EF00032E200080
:1005B000008041001040BA000160EF00000006001A
:1005C000415400002B500000494E0000452500001A
:1005D000730000005420EF00632F200000804100D2
:1005E0001040BA000160EF00000006004154000016
:1005F0002B500000494E0000423F00000D0A000051
:10060000000000005420EF00E33020000080410093
:100610001040BA000160EF000000060041540000E5
:100620002B500000494E00004225000073000000DE
:100630005420EF0043322000008041001040BA00F7
:100640000160EF00000006004D790000424C000000
:100650000D0A0000000000005420EF00833320004A
:10066000008041001040BA000160EF000000060069
:10067000546100006C680000610D00000A00000079
:100680005420EF00C3342000008041001040BA0025
:100690000160EF00000006004D790000424C0000B0
:1006A0005F4200004C4500000D0A00000000000001
:1006B0004200F8003600F8005400F800801F78006F
:1006C000200020000C000900B01F78002168A9005C
:1006D0000431EF000631EF000831EF000A31EF007E
:1006E0002202AE000D003700318880000491BF0067
:1006F0000431EC004220AF000631EC0080027800AB
:100700000103780024042100848342002202AE0009
:10071000FEFF370030118000804B78003488800065
:100720006020E1000D003C000400350024888000BA
:10073000430620000418E1000800360054888000B9
:100740006020E100E6FF350004003C0044888000A2
:1007500083DE2F000418E100E1FF3E000010A80036
:100760000168A900A00120000C0009004F107800CA
:100770004F0078005400F9003600F9004200F900FB
:1007800000400600811F7800D185800080587800E5
:100790008048EB00CF007800BA30EC000000060083
:1007A000851F7800C500200003000900B51F7800F0
:1007B00000F0A6000D0037000000EA000480A00051
:1007C00004F0A60009003700801F7800D002200046
:1007D000801F78004F007800C20302000000000074
:1007E0004F0078000480A1000860ED008002EB005B
:1007F000800378008404780004F0A1000404E00081
:1008000006003A0009F0A7000200370005002000AA
:1008100010003700050020000E003700E6425200AD
:100820000B0039000003200009F0A60000022000A0
:10083000801F78004F007800C20302000000000013
:100840008502E900FAFF3B00550020000100370057
:1008500084027800640020000580A7000402E800FC
:1008600005E0A00009F0A70005F0A0000871220033
:10087000110009008883D8008404020000000000F1
:1008800081037800883E2000110009008883D80089
:100890008404020000000000810378004806200064
:1008A000110009008883D8008404020000000000C1
:1008B00081037800A8002000110009008883D80077
:1008C00084040200000000000980A6000600370032
:1008D000D0022000801F78004F007800C203020081
:1008E000000000000980A1000003200000C04000BB
:1008F00050018800801F78004F007800C20302007A
:100900000000000024003700060320000000E00083
:100910000E003A0005E0A600170037000402E900C7
:100920000524E100020032004200AF000000060092
:100930000000E00005003A0005E0A6000E003700C8
:1009400005F0A600060220000B00370005E0A1001C
:100950000980A6000800370000057800D0022000BA
:10096000801F78004F007800C203020000000000E2
:100970000980A1000A00780000404300811F780030
:10098000801F78004F007800C203020000000000C2
:10099000CF007800000006002501200003000900B8
:1009A000CF127800CF027800000006001187800087
:1009B0001104E000060032002322AF00FEFF3700E2
:1009C0000140900024E2B7008100E800F8FF370002
:1009D000610A210002002000130009008058EB008A
:1009E00000000600DC50E20013003200640A21001F
:1009F000D485880001002000010078000160EF002C
:100A000000020200000000008100E800811F780061
:100A1000801F78004F007800C20302000000000031
:100A2000CF007800900020001008E600F2FF3700A9
:100A30005405040000000000640A2100D4858800E9
:100A400001002000010078000160EF0018020200A0
:100A5000000000008100E800811F7800801F7800FE
:100A60004F007800C203020000000000CF007800B1
:100A7000600020001008E600F2FF3700DDD0BF0064
:100A80000000FB0004002000D00302000000000072
:100A9000D0C0B300C203020000000000A0C0B30039
:100AA000C203020000000000640A210014878800CD
:100AB000D604020000000000000006000000E00074
:100AC0004220AF00080037007B3B09000000000017
:100AD000FE3F090000000000FE3F0900000000008A
:100AE0000000E900F8FF3A0000000600DC50E200D8
:100AF00013003200640A2100D48588000100200020
:100B0000010078000160EF003002020000000000E8
:100B10008100E800811F7800801F78004F00780076
:100B2000C203020000000000CF0078009000200007
:100B30001008E600F2FF3700D805040000000000AE
:100B4000640A2100D485880001002000010078009B
:100B50000160EF0048020200000000008100E80090
:100B6000811F7800801F78004F007800C2030200C8
:100B700000000000CF007800600020001008E600B0
:100B8000F2FF3700DDD0BF000000FB0004002000B2
:100B9000D003020000000000D0C0B300C203020076
:100BA00000000000A0C0B300C2030200000000006B
:100BB000640A210014878800D604020000000000A7
:100BC00000000600DC50E20013003200640A21003D
:100BD000D485880001002000010078000160EF004A
:100BE00060020200000000008100E800811F780020
:100BF000801F78004F007800C20302000000000050
:100C0000CF007800900020001008E600F2FF3700C7
:100C10004406040000000000640A2100D485880016
:100C200001002000010078000160EF00780202005E
:100C3000000000008100E800811F7800801F78001C
:100C40004F007800C203020000000000CF007800CF
:100C5000600020001008E600F2FF3700F1868000F7
:100C60001104E00008003200811F780001027800C2
:100C700014407800C203020000000000CF0078009A
:100C80008100E800F6FF3700640A2100148788001D
:100C9000D60402000000000000000600DC50E20064
:100CA00013003200640A2100D4858800010020006E
:100CB000010078000160EF008E02020000000000D9
:100CC0008100E800811F7800801F78004F007800C5
:100CD000C203020000000000CF0078009000200056
:100CE0001008E600F2FF3700B00604000000000024
:100CF000640A2100D48588000100200001007800EA
:100D00000160EF00A6020200000000008100E80080
:100D1000811F7800801F78004F007800C203020016
:100D200000000000CF007800600020001008E600FE
:100D3000F2FF3700F18680001104E0000800320065
:100D4000811F78000102780014407800C20302007D
:100D500000000000CF0078008100E800F6FF3700B7
:100D6000640A210014878800D604020000000000F5
:100D700000000600DC50E20013003200640A21008B
:100D8000D485880001002000010078000160EF0098
:100D9000BC020200000000008100E800811F780012
:100DA000801F78004F007800C2030200000000009E
:100DB000CF007800900020001008E600F2FF370016
:100DC0001C07040000000000640A2100D48588008C
:100DD00001002000010078000160EF00D402020051
:100DE000000000008100E800811F7800801F78006B
:100DF0004F007800C203020000000000CF0078001E
:100E0000600020001008E600F2FF3700F186800045
:100E10001104E00008003200811F78000102780010
:100E200014407800C203020000000000CF007800E8
:100E30008100E800F6FF3700640A2100148788006B
:100E4000D60402000000000000000600DC50E200B2
:100E500013003200640A2100D485880001002000BC
:100E6000010078000160EF00EA02020000000000CB
:100E70008100E800811F7800801F78004F00780013
:100E8000C203020000000000CF00780090002000A4
:100E90001008E600F2FF3700880704000000000099
:100EA000640A2100D4858800010020000100780038
:100EB0000160EF0002030200000000008100E80072
:100EC000811F7800801F78004F007800C203020065
:100ED00000000000CF007800600020001008E6004D
:100EE000F2FF3700F18680001104E00008003200B4
:100EF000811F78000102780014407800C2030200CC
:100F000000000000CF0078008100E800F6FF370005
:100F1000640A210014878800D60402000000000043
:100F20000000060002002000E10B21000200780012
:100F30001803020000000000805878000201E80059
:100F40000004E0004220AE00F8FF3700020020005D
:100F5000610C2100020078002C0302000000000058
:100F6000805878000201E8000004E0004220AE0052
:100F7000F8FF370002002000E10C21000200780099
:100F80004003020000000000805878000201E800E1
:100F90000004E0004220AE00F8FF3700610A2100A3
:100FA00002002000130009008058EB00DC70EF0005
:100FB000DD70EF00F204020000000000800C200051
:100FC0005E05020000000000DC70EF0010C0B300FE
:100FD000DDF0B7007605020000000000800C200064
:100FE0005E05020000000000DC70EF00E40B210051
:100FF000F4868800E205020000000000800C20005A
:101000005E05020000000000DC70EF00E40C21002F
:10101000F48688004E06020000000000800C2000CC
:101020005E05020000000000DC70EF00640C21008F
:10103000F4868800BA06020000000000800C200040
:101040005E05020000000000DC70EF00640C21006F
:10105000F48688002607020000000000800C2000B3
:101060005E050200000000002A48A800C3E8A800AE
:1010700000000600851F7800C230EF00C0D0BF001E
:101080000000FB00148680000020E1000B003D0002
:10109000C290BF00BE10B400904278002322AF007F
:1010A000FEFF37002402F800E5FF9F002402F9004C
:1010B000C230EC003E08040000000000CF027800BF
:1010C000000006004044240020428800C1E8A80037
:1010D0006004200042E7B7007005200042E7B70037
:1010E00042C7A900D0042000C4A6B7000010200009
:1010F00080A6B7006004200042E7B700700520001A
:1011000042E7B70042C7A80014002000243A880034
:1011100064012000343A88000E00FC0030102000EA
:101120003174200082072000A30920008248780043
:101130008348780043E7B7004800DE0021742000B0
:1011400062042000730520008248780083487800FC
:101150008048780004002800041188000440200022
:101160001411880094012000441188000010A90087
:101170000E2EEF001E2EEF002E2EEF003E2EEF0063
:101180004E2EEF005E2EEF006E2EEF000FF82600C1
:10119000F0FF260020A0B700000000000FF8260096
:1011A000F0FF260020A0B700000000002168A80082
:1011B000C3E8A8009207020000000000BC30EF0066
:1011C000E4858000030420000418E10008003400D6
:1011D00024002100E385800084824100BC90BF0090
:1011E00080429800BC30EC00E008040000000000E1
:1011F00000C4B300C0F0B70024002100F4858800CB
:101200003A080200000000000010AE0001003700A4
:101210000010A900400620005E050200000000004A
:0C122000F8080400000000000040FE0080
:0200000401F009
:10000800330000FF800000FF260000FF7F0000FF94
:0C001800370000FFD70000FF330000FF9E
:00000001FF
;DSPIC33EP256MU810
;CRC=DBE1  CREATED="03-Eyl-21 22:25"
