:080000004E0C0400000000009A
:100400005420EF00630720008301500005003100F5
:10041000C3212000008041001040BA000160EF00BD
:1004200000000600C021200083814100808141003E
:100430001380BA00000006005441260049523700DC
:10044000D6971100DE8CA600CC5B80008509B70032
:100450000D56D200D3DA74008ED8F4000BD14300CD
:100460003FE7C600EC3DB200D6314600DDE00500B6
:10047000E2D348000EEE56004B984B0096784C00A5
:100480002FB7480021591E00F3445500653C190060
:1004900041532C004E413200683B670075347E00AA
:1004A0007D462D0033071F00BCFA7800C9CE060038
:1004B0000CF67A003FF165002ADC1D00E3121B00F8
:1004C000E73B4400D8CA2100655E3C00864C27000B
:1004D000FFA16300276B420056F77E00D0BB590096
:1004E0004CBB82006BD0C0004C45BE00434CE700C3
:1004F0006520AA00632F6A00B191D400F2DD3300B9
:1005000042D3160021FC7C002DFEA800DF239B00B7
:10051000827CDD00A380A1004E320900911192007F
:1005200085B70000851F7800861F7800A233EF0092
:10053000149D80006420E10027003D00A433EF00FB
:10054000249D80006420E10020003D00149D800077
:100550006420B8008002780005007800A413B4007D
:100560006434210084024000249D80006423B8008C
:1005700006007800A213B40000037800843721003D
:1005800004004300904A7800A633EF00A833EF0040
:10059000449D80006020E10009003C00030035001C
:1005A000349D80006120E10005003100A633EC009D
:1005B0004220AF00A833EC00C80204000000000095
:1005C000A433EC00A002040000000000A233EC0001
:1005D00098020400000000004F037800CF0278006A
:1005E00000000600851F7800861F7800871F7800AE
:1005F000881F7800A633EF00349D80006420E1005E
:1006000034003D00A833EF00449D80006420E100E9
:100610002D003D00349D80006420B80080027800E9
:1006200005007800A813B40064342100840240005F
:10063000349D80006423B80006007800A813B4003D
:10064000643421000400400010437800349D800091
:10065000C302200003A0B90080037800249D80001D
:100660006424B80008007800A813B40000047800DF
:1006700007004400000202000000000000406B0080
:10068000804A7800AA33EF00AC33EF00649D80000D
:100690006020E10009003C0003003500549D80000B
:1006A0006120E10005003100AA33EC004220AF00D8
:1006B000AC33EC004603040000000000A833EC005B
:1006C0000403040000000000A633EC00FC02040058
:1006D000000000004F047800CF0378004F0378003B
:1006E000CF02780000000600851F7800861F780082
:1006F000871F7800881F7800A233EF00149D8000C8
:100700006420E1002A003D00A433EF00249D800016
:100710006420E10023003D00149D80006420B800A7
:100720008002780005007800A413B400643421002E
:1007300084024000149D80006423B8000600780005
:10074000A413B40064342100040040001043780076
:100750000D60EF000D60EF004433DE004433DD0038
:10076000149D80006420B8008003780007007800A2
:10077000A413B400643421000400400090437800C6
:100780008703FB00EF836300068043000411210010
:1007900004004000904A7800A433EC008603040073
:1007A00000000000A233EC007E0304000000000003
:1007B0004F047800CF0378004F037800CF02780011
:1007C00000000600A233EF00A433EF004AD3BF00BD
:1007D0000000FB00A2B3B7004BD3BF004AF3B70041
:1007E0004CD3BF004BF3B7004DD3BF004CF3B70061
:1007F000A2D3BF004DF3B7004ED3BF000000FB00F3
:10080000A2B3B7004FD3BF000000FB00A4B3B700F2
:1008100050D3BF004EF3B70051D3BF004FF3B70022
:10082000A2D3BF0050F3B700A4D3BF0051F3B70069
:1008300055D3BF000000FB00A2B3B70054D3BF00E4
:1008400055F3B70053D3BF0054F3B70052D3BF00E2
:1008500053F3B700A2D3BF0052F3B7000000060065
:10086000851F7800861F7800871F7800A613A900CF
:10087000A633A900C033EF00049E80006420E1008D
:1008800020003D00049E80006220B800843B2100CF
:1008900084024000049E80006423B800249D8000F0
:1008A000E10352000680430064342100040040004C
:1008B00000027800144078000000FB00800A7800F5
:1008C000C233EF00C433EF00249E80006020E100BB
:1008D00009003C0003003500149E80006120E10007
:1008E00005003100C233EC004220AF00C433EC00FD
:1008F0006404040000000000C033EC003C04040069
:1009000000000000B893BF004700DE00A613A90056
:100910000000AF00A613A800BA93BF004700DE0096
:10092000A633A9000000AF00A633A800B813F80052
:10093000B013F900B033D400A613AE0003003700A3
:10094000B093BF007B006800B0B3B700849D800007
:10095000F40FB200849D8800BA13F800B213F900B6
:10096000B233D400A633AE0003003700B293BF0009
:100970007B006800B2B3B700BA93BF00B2B3B60051
:10098000949D8000F40FB200949D8800B093BF0046
:10099000B293B6008002780005007800BC93B600E0
:1009A00080027800BE13F800A813F9000500780053
:1009B000A8B3B600BA93BF004700DE00A613A90093
:1009C0000000AF00A613A800BC93BF004700DE00E4
:1009D000A633A9000000AF00A633A800BA13F800A0
:1009E000B013F900B033D400A613AE0003003700F3
:1009F000B093BF007B006800B0B3B700849D800057
:100A0000F40FB200849D8800BC13F800B213F90003
:100A1000B233D400A633AE0003003700B293BF0058
:100A20007B006800B2B3B700BC93BF00B2B3B6009E
:100A3000949D8000F40FB200949D8800B093BF0095
:100A4000B293B6008002780005007800B893B60033
:100A500080027800BE13F800AA13F90005007800A0
:100A6000AAB3B600BC93BF004700DE00A613A900DE
:100A70000000AF00A613A800BE93BF004700DE0031
:100A8000A633A9000000AF00A633A800BC13F800ED
:100A9000B013F900B033D400A613AE000300370042
:100AA000B093BF007B006800B0B3B700849D8000A6
:100AB000F40FB200849D8800BE13F800B213F90051
:100AC000B233D400A633AE0003003700B293BF00A8
:100AD0007B006800B2B3B700BE93BF00B2B3B600EC
:100AE000949D8000F40FB200949D8800B093BF00E5
:100AF000B293B6008002780005007800B893B60083
:100B000080027800BA13F800AC13F90005007800F1
:100B1000ACB3B600BE93BF004700DE00A613A90029
:100B20000000AF00A613A800B893BF004700DE0086
:100B3000A633A9000000AF00A633A800BE13F8003A
:100B4000B013F900B033D400A613AE000300370091
:100B5000B093BF007B006800B0B3B700849D8000F5
:100B6000F40FB200849D8800B813F800B213F900A6
:100B7000B233D400A633AE0003003700B293BF00F7
:100B80007B006800B2B3B700B893BF00B2B3B60041
:100B9000949D8000F40FB200949D8800B093BF0034
:100BA000B293B6008002780005007800BA93B600D0
:100BB00080027800BC13F800AE13F900050078003D
:100BC000AEB3B600249D8000E102520064342100DF
:100BD00004834200A893BF0000439800249D800036
:100BE000E1025200A434210004834200AA93BF0012
:100BF00000439800249D8000E1025200E43421006B
:100C000004834200AC93BF0000439800249D800001
:100C1000E10252002435210004834200AE93BF005C
:100C200000439800CF0378004F037800CF0278008C
:100C30000000060014002000149D8800149D800010
:100C40006520E10007003D00A213F800A413F9009D
:100C50003004020000000000A233EC001E06040075
:100C60000000000000000600851F7800861F780045
:100C7000A233EF00A433EF00249D80006420E10044
:100C800015003D00A633EF00349D80006420E10094
:100C90000E003D0064332100139D800084824100DA
:100CA000349D80006423B80006007800A413B400CB
:100CB0006434210004004000904A7800A233EC0024
:100CC000A633EC004406040000000000A433EC004E
:100CD0003C060400000000004F037800CF027800BB
:100CE00000000600851F7800861F78009233EF0011
:100CF000649C800003012000110009000302D80059
:100D000094B3B700649C8000030120001100090027
:100D10000302D800B19C88009033EF009093BF008D
:100D2000A49C80000020E1007F0035009093BF006C
:100D30009413E30004003A009613E20002003A0024
:100D400094070400000000009093BF009413E30098
:100D500005003A009093BF009413E30016003A0098
:100D60009613E20014003A009233EF00949C800046
:100D70007020E1000E003D0084372100939C80002C
:100D800084824100849C80007023B80006007800B3
:100D90009213B40000037800060078008A13B400B0
:100DA000904A78009233EC00B60604000000000080
:100DB00020070400000000009613E200200032002B
:100DC0009233EF009293BF00B49C80000020E100BA
:100DD0000E00340084372100939C800084824100FF
:100DE000849C80007023B800060078009213B40041
:100DF00000037800060078008A13B400904A780057
:100E00009233EC00E206040000000000B49C800075
:100E100061024200949C8800949C80007020E10054
:100E200007003D0084372100939C800084824100AC
:100E3000804AEB009233EC000C0704000000000035
:100E40009202020000000000A433EF00F202020050
:100E5000000000009033EF00849C80006920E100D6
:100E60000F003D007403020000000000E2030200D6
:100E7000000000001A06020000000000849C8000B0
:100E80006102420084027800259D8800F20202007F
:100E9000000000009033EC002C070400000000006C
:100EA0007403020000000000E203020000000000E2
:100EB000A4002000249D8800F2020200000000002F
:100EC00034060200000000007633EF009833EF0094
:100ED000C49C80007020E10010003D00849C8000D4
:100EE0007020B80080027800050078009813B400E4
:100EF00080027800050078008E13B40000037800AB
:100F000064332100C39C800004804100104B7800B2
:100F10009833EC0068070400000000009033EC00F8
:100F20008E060400000000004F037800CF02780016
:100F300000000600851F7800861F7800BE33EF0092
:100F4000F49D80006420E10019003D00C033EF00F3
:100F5000049E80006420E10012003D00F49D8000AA
:100F60006420B8008002780005007800C013B40047
:100F70006435210084024000049E80006423B80090
:100F800006007800BE13B400000378000600780065
:100F9000BC13B400904A7800C033EC00A8070400EA
:100FA00000000000BE33EC00A007040000000000B9
:100FB0004F037800CF02780000000600851F7800FC
:100FC000861F7800871F7800881F7800BE33EF00E7
:100FD000F49D80006420E10026003D00C033EF0056
:100FE000049E80006420E1001F003D00F49D80000D
:100FF0006420B8008002780005007800C013B400B7
:101000006435210084024000F49D80006423B80010
:1010100006007800C013B4006435210004004000CD
:1010200010437800F49D8000C302200003A0B900A3
:1010300080037800E49D80006424B80008007800F4
:10104000C013B4000004780007004400000202004E
:101050000000000000406B00804A7800C033EC00C4
:10106000F007040000000000BE33EC00E8070400B5
:10107000000000004F047800CF0378004F03780091
:10108000CF027800000006005DD3BF000000FB0027
:10109000BCB3B7005CD3BF005DF3B7005BD3BF0048
:1010A0005CF3B7005AD3BF005BF3B700BCD3BF00FB
:1010B0005AF3B70060D3BF000000FB00BCB3B70019
:1010C00061D3BF000000FB00BEB3B7005FD3BF0019
:1010D00061F3B7005ED3BF0060F3B700BED3BF00BB
:1010E0005FF3B700BCD3BF005EF3B70062D3BF00AD
:1010F0000000FB00BCB3B70063D3BF0062F3B700CE
:1011000064D3BF0063F3B70065D3BF0064F3B700D7
:10111000BCD3BF0065F3B70000000600851F780050
:10112000861F7800871F7800881F7800BC33EF0087
:10113000E49D80006420E1002A003D00BE33EF0002
:10114000F49D80006420E10023003D00E49D8000C8
:101150006420B8008002780005007800BE13B40057
:101160006435210084024000E49D80006423B800BF
:1011700006007800BE13B40064352100040040006E
:10118000104378000D60EF000D60EF004433DE0087
:101190004433DD00E49D80006420B80080037800C3
:1011A00007007800BE13B40064352100040040003D
:1011B000904378008703FB00EF83630006804300C1
:1011C0000421210004004000904A7800BE33EC0066
:1011D000A008040000000000BC33EC0098080400E4
:1011E000000000004F047800CF0378004F03780020
:1011F000CF02780000000600EAD3BF000000FB0029
:10120000F40F20000020E10004003D00EAD3BF00FD
:101210000000FB00F00FB200EAF3B700EAD3BF0012
:101220000160EF000160EF004700DE00EB13A90052
:101230000000AF00EB13A800EAD3BF000160EF008D
:101240004100DD00EAF3B700EAD3BF000000FB0075
:10125000F00FB200EAF3B700EB13AE000400370062
:10126000EAD3BF000000FB007B006800EAF3B70090
:10127000EAD3BF0000E0B70000000600E213F80068
:10128000E413F900E4D3BF00EAF3B700FC0802005E
:10129000000000000000FB00E4B3B700E293BF00D1
:1012A000E4B3B600E4D3BF00EAF3B700FC080200E1
:1012B000000000000000FB00E4B3B700E293BF00B1
:1012C000E4B3B600E4D3BF00EAF3B700FC080200C1
:1012D000000000000000FB00E4B3B700E4D3BF004F
:1012E00000E0B70000000600E2D3BF000000FB00F2
:1012F000E4B3B700E633EF00349F80006220E100E2
:1013000009003D00E4D3BF00EAF3B700FC08020087
:10131000000000000000FB00E4B3B700E633EC007F
:101320007C09040000000000E2D3BF000000FB00C5
:10133000E4B3B600E4D3BF00EAF3B700FC08020050
:10134000000000000000FB00E4B3B700E2D3BF00E0
:101350000000FB00E4B3B600E4D3BF0000E0B70038
:1013600000000600E213F800E413F900E4D3BF0024
:10137000EAF3B700FC080200000000000000FB00D8
:10138000E4B3B700E293BF00E4B3B600E633EF0086
:10139000349F80006220E10009003D00E4D3BF00DB
:1013A000EAF3B700FC080200000000000000FB00A8
:1013B000E4B3B700E633EC00C80904000000000005
:1013C000E293BF00E4B3B600E4D3BF0000E0B7008F
:1013D00000000600E2D3BF000000FB00E4B3B7004A
:1013E000E633EF00349F80006320E10009003D00F8
:1013F000E4D3BF00EAF3B700FC08020000000000DD
:101400000000FB00E4B3B700E633EC00F20904008F
:1014100000000000E2D3BF000000FB00E4B3B60010
:10142000E4D3BF0000E0B70000000600851F78008D
:10143000861F7800871F7800D433EF00A49E8000B9
:101440006420E10012003D00A49E80006220B800EC
:10145000C43C210084024000A49E80006423B800A4
:10146000149E8000E1035200068043006435210091
:101470000400400000027800144078000000FB00E7
:10148000800A7800D433EC001E0A0400000000003B
:10149000CC13F800E213F9003E090200000000003E
:1014A00080427800CED3BF00E2F3B7007409020097
:1014B0000000000080C26A00D013F800E213F900B7
:1014C000B20902000000000080C26A00D2D3BF004F
:1014D000E2F3B700EA0902000000000000C06A0061
:1014E0000000FB00C4B3B700CCD3BF00E2F3B700E9
:1014F000EA0902000000000080427800CE13F800E4
:10150000E213F9003E0902000000000080C26A00F8
:10151000D0D3BF00E2F3B70074090200000000005E
:1015200080C26A00D213F800E213F900B209020087
:101530000000000000C06A000000FB00C6B3B70056
:10154000CC13F800E213F900B20902000000000019
:1015500080427800CED3BF00E2F3B700EA09020070
:101560000000000080C26A00D013F800E213F90006
:101570003E0902000000000080C26A00D2D3BF0012
:10158000E2F3B700740902000000000000C06A0026
:101590000000FB00C8B3B700CCD3BF00E2F3B70034
:1015A000740902000000000080427800CE13F800A9
:1015B000E213F900B20902000000000080C26A00D4
:1015C000D0D3BF00E2F3B700EA0902000000000038
:1015D00080C26A00D213F800E213F9003E0902004B
:1015E0000000000000C06A000000FB00CAB3B700A2
:1015F000149E8000E1025200643521000483420001
:10160000C493BF0000439800149E8000E102520082
:10161000A435210004834200C693BF000043980014
:10162000149E8000E1025200E43521000483420050
:10163000C893BF0000439800149E8000E10252004E
:101640002436210004834200CA93BF00004398005F
:10165000CF0378004F037800CF0278000000060027
:10166000851F7800BC33EF00E49D80006420E1001A
:1016700009003D00E49D8000610242008402780080
:10168000159E8800160A020000000000BC33EC0022
:10169000340B040000000000CF02780000000600B8
:1016A000851F7800861F7800BC33EF00BE33EF0043
:1016B000F49D80006420E10015003D00C033EF0080
:1016C000049E80006420E1000E003D00643621008D
:1016D000E39D800084824100049E80006423B80062
:1016E00006007800BE13B4006435210004004000F9
:1016F000904A7800BC33EC00C033EC00600B04006F
:1017000000000000BE33EC00580B04000000000095
:101710004F037800CF02780000000600851F780094
:10172000861F7800649C80000301200011000900DE
:101730000302D80090B3B700649C8000030120002E
:10174000110009000302D800919C8800A433EF0027
:10175000A493BF00849C80000020E1004C00350071
:10176000A633EF00349D80007020E1000E003D00A4
:1017700044392100339D800084824100249D8000F3
:101780007023B80006007800A613B40000037800A8
:10179000060078008A13B400904A7800A633EC0063
:1017A000B20B04000000000044392100E49D8800D1
:1017B0009A07020000000000A4002000E49D8800B9
:1017C000DE0702000000000094002000449D880015
:1017D000449D80006020E1000D00340044080200B8
:1017E000000000008E08020000000000A813F800AE
:1017F000BC13F900DE07020000000000300B0200FD
:1018000000000000A833ED00E80B04000000000019
:1018100044080200000000008E08020000000000E2
:10182000BC33EF00DE07020000000000500B020096
:1018300000000000AA33EF00549D80007020E100FA
:1018400010003D00249D80007020B80080027800C8
:1018500005007800AA13B400800278000500780023
:101860008E13B4000003780064362100539D80007D
:1018700004804100104B7800AA33EC001C0C0400DB
:1018800000000000A433EC00A80B040000000000DE
:101890004F037800CF02780000000600C1E8A800DE
:1018A00014002000243A880064012000343A8800A3
:1018B0000E00FC0030102000317420008207200050
:1018C000A3092000824878008348780043E7B700E6
:1018D0004800DE002174200062042000730520000F
:1018E0008248780083487800804878002033EF00F1
:1018F0007633EF000E2EEF001E2EEF002E2EEF009F
:101900003E2EEF004E2EEF005E2EEF006E2EEF000B
:101910000FF82600F0FF260020A0B700000000000E
:10192000C00037008210110010637C00777BF2004A
:101930006B6FC500300167002BFED700AB76CA0085
:1019400082C97D00FA594700F0ADD400A2AF9C00D7
:10195000A472C000B7FD930026363F00F7CC3400D8
:10196000A5E5F10071D831001504C70023C31800A4
:1019700096059A0007128000E2EB2700B275090075
:10198000832C1A001B6E5A00A0523B00D6B32900CC
:10199000E32F840053D10000ED20FC00B15B6A000E
:1019A000CBBE39004A4C5800CFD0EF00AAFB430011
:1019B0004D33850045F902007F503C009FA851003F
:1019C000A3408F00929D3800F5BCB600DA211000CC
:1019D000FFF3D200CD0C1300EC5F97004417C40056
:1019E000A77E3D00645D1900736081004FDC22001A
:1019F0002A90880046EEB80014DE5E000BDBE000A3
:101A0000323A0A00490624005CC2D300AC6291005D
:101A100095E47900E7C837006D8DD5004EA96C00BC
:101A200056F4EA00657AAE0008BA7800252E1C004C
:101A3000A6B4C600E8DD74001F4BBD008B8A7000A1
:101A40003EB566004803F6000E61350057B98600C2
:101A5000C11D9E00E1F898001169D9008E949B0089
:101A60001E87E900CE552800DF8CA100890DBF003C
:101A7000E642680041992D000FB05400BB16520099
:101A8000096AD5003036A50038BF4000A39E81000A
:101A9000F3D7FB007CE33900829B2F00FF873400E3
:101AA0008E434400C4DEE900CB547B009432A60090
:101AB000C2233D00EE4C95000B42FA00C34E0800D5
:101AC0002EA1660028D92400B2765B00A2496D00E1
:101AD0008BD1250072F8F600648668009816D40051
:101AE000A45CCC005D65B600926C70004850FD00AF
:101AF000EDB9DA005E15460057A78D009D84900071
:101B0000D8AB00008CBCD3000AF7E4005805B8003D
:101B1000B3450600D02C1E008FCA3F000F02C10043
:101B2000AFBD030001138A006B3A910011414F00D1
:101B300067DCEA0097F2CF00CEF0B400E6739600BF
:101B4000AC742200E7AD350085E2F90037E81C00EF
:101B500075DF6E0047F11A00711D2900C5896F00FD
:101B6000B7620E00AA18BE001BFC56003E4BC60012
:101B7000D27920009ADBC000FE78CD005AF41F0015
:101B8000DDA833008807C70031B1120010592700C3
:101B900080EC5F0060517F00A919B5004A0D2D004F
:101BA000E57A9F0093C99C00EFA0E0003B4DAE009A
:101BB0002AF5B000C8EBBB003C83530099611700C5
:101BC0002B047E00BA77D60026E169001463550025
:101BD000210C7D0054414900524153004E414C00BC
:101BE00045434C0048564B004C0000000201E80001
:101BF0006110E10004003A009101BA003182BA009C
:101C000006C0BF00000006006210E10002003A00BA
:101C100007C0BF000000060008C0BF000001EB00C5
:101C2000000006000600200000002000A00288003E
:101C300020C92000800078000001EB00F60D0200B2
:101C4000000000000BE0B700F60D020000000000ED
:101C50000AE0B7000500E0001900320005F0A60018
:101C600007003700F60D0200000000000DE0B7008D
:101C7000F60D0200000000000CE0B70005F0A10026
:101C800005E0A6000800370005E0A1008502E90094
:101C9000F60D020000000000804378000580090076
:101CA000075B7800E5FF3700F60D0200000000003A
:101CB000005B78008502E900FBFF3A00DFFF370098
:101CC0008833EF00449C8000030820000418E100E2
:101CD0000800340004002100439C800084824100FD
:101CE0008893BF00804298008833EC00620E0400A5
:101CF0000000000004002100549C8800040820001B
:101D0000649C880004082100749C8800720602000C
:101D10000000000004082100549C880004082000F2
:101D2000649C880004102100749C88008E0B0200C3
:101D3000000000009A0E0400000000000040FE00B9
:0200000401F009
:10000800330000FF800000FF260000FF7F0000FF94
:0C001800370000FFD70000FF330000FF9E
:00000001FF
;DSPIC33EP256MU810
;CRC=E8B2  CREATED="03-Eyl-21 22:01"
